:100000002858001055030700630307006303070027
:100010006303070063030700630307009493D5EFAE
:10002000630307006303070063030700630307001C
:10003000630307006303070063030700630307000C
:1000400063030700630307006303070063030700FC
:1000500063030700630307006303070063030700EC
:1000600063030700630307006303070063030700DC
:1000700063030700630307006303070063030700CC
:1000800063030700630307006303070063030700BC
:1000900063030700630307006303070063030700AC
:1000A000630307006303070063030700630307009C
:1000B000630307006303070063030700630307008C
:1000C000630307006303070063030700630307007C
:1000D000630307006303070063030700630307006C
:0400E00063030700AF
:020000040007F3
:10000000816807E002681168536889185B18C3604B
:1000100008320260C2689142F4D04A1C82600878BB
:10002000704738B504460D46A068E168884212D191
:1000300020686168884208BF00F0B4F82068227C1C
:10004000016802B14944A16042685218E260083078
:1000500020609142ECD0A068401CA06000F8015DD7
:1000600031BD2DE9F04589B000F108010591016825
:10007000059A490802EBC1010691002107910891F8
:100080000168490800EBC10108310091017901F0D4
:1000900001018DF8101040680099400801EBC00084
:1000A000019000200290039075E005A8FFF7A8FFDB
:1000B000044614F0030503D105A8FFF7A1FFC51CF2
:1000C00026090F2E0CD105A8FFF79AFF00F10F06A5
:1000D00006E005A8FFF794FF014600A8FFF7A1FF7F
:1000E0006D1EF6D1002E52D005A8FFF789FF0546F8
:1000F000A00800F00300032804BF05A8FFF780FF55
:10010000009C0299DDF80C8005EB002006E0083C1D
:10011000801A6168226801EB0208414622688A1A47
:100120008242F4D3404247180025B61C2FD04745E1
:1001300007D154F8047B54F8040B00EB070847453B
:10014000F7D00298039917F801AB884217D10098AD
:100150000199884208BF00F025F8009800689DF8D2
:100160001010029009B14844029000990298496821
:10017000009A09180832039100928842E7D0029849
:10018000401C02906D1C00F801ADB542CFD1029821
:100190000399884289D101980099814285D109B09B
:1001A000BDE8F085012000F011B850F8041B61B1E2
:1001B00050F8042BD30744BFA9F101039A18002378
:1001C00042F8043B091FFAD1EFE7704701491820B4
:1001D000ABBEFBE72600020070B5504A5049D56F10
:1001E000504C5148514BED0514D44D68ED0702D5E4
:1001F00025686D0617D5D66F1D4606F01F06B5FBA0
:10020000F6F50560A46804F01F04B3FBF4F4446041
:100210001C4627E01568ED0505D54D68ED0706D5A8
:1002200025686D0603D400240460446020E015684E
:10023000D66F05F01F056D1C5D4306F01F06B5FB6C
:10024000F6F505601568A46805F01F056D1C5D4393
:1002500004F01F04B5FBF4F44460146804F01F04B8
:10026000641C5C43956F05F001056D1CB4FBF5F44F
:1002700084600C68E4050C6811D504F01F04042C9C
:1002800018BF062C17D14C681268096802F01F02CB
:10029000521C5A4301F01F01B2FBF1F10CE0A4051E
:1002A00009D54968C9074CBF116A116801F01F01DF
:1002B000491C594300E00021C16070BD194821214B
:1002C000016001684906FCD5012219498A600923A9
:1002D000184A536001231360AA23D3605523D360C7
:1002E00093685B05FCD52323536201231362AA2381
:1002F000D3625523D362936A5B05FCD540F20112A9
:100300000A6040F201224A600421816045F23A010C
:100310000948016009480A490160704788C00F40D8
:1003200008C10F40A0C10F40A03F0010001BB70044
:1003300004C10F4080C00F4000C00F4008ED00E036
:1003400000000010DFF800F0F7120010DFF800F0F6
:100350002113001080B5FFF7B1FFBDE8014000F0A8
:1003600061B8704780B50FF24800FFF7EBFFFEE77A
:1003700080B50FF24C00FFF7E5FFFFF7E7FFFEE760
:1003800080B50FF24C00FFF7DDFFFEE780B50FF2FE
:100390005400FFF7D7FFFEE780B50FF26000FFF7CC
:1003A000D1FFFEE780B50FF26800FFF7CBFFFEE755
:1003B0004170705F4E4D495F4953520D0A00000075
:1003C0004170705F4661756C745F4953520D0A004D
:1003D0004170705F4275734661756C745F4953522A
:1003E0000D0A00004170705F557361676546617565
:1003F0006C745F4953520D0A000000004170705F39
:100400004D656D4661756C745F4953520D0A00006D
:100410004170705F53707572696F75735F495352A5
:100420000D0A0000C046C046C046C04600F008F8AD
:10043000DFF800F0FD1B0010DFF800F0CD3F0010EA
:100440000120C046002801D000F006F80020FFF788
:10045000EFFFFFF7F1FF000010B5074979441831AD
:10046000064C7C44163404E00A68081D511888477D
:100470000146A142F8D110BD080000005400000060
:100480002BFDFFFF54160000D03F00109409000020
:100490000000002000000000CBFBFFFF0200000076
:1004A000020000002C000000A3000000000000106B
:1004B000E4000000AFFBFFFF0200000002000000AC
:1004C000B30000008B34000000010010D03E00009B
:1004D0001007285800105503070065041271041214
:1004E0009904128104128D04F20AA504100B231240
:1004F0000010A7150010DB260010DF0412E3041221
:10050000E70412EB0412EF0412F30412F70412FBD7
:100510000412FF041003032700100704120B041237
:100520000F04121304121504121B04121F041223C9
:1005300004122704122B04122F041233041237045E
:10054000123B04123F04124304124704124B0412DC
:100550004D04125304125704125B04125F04126319
:1005600004126704126B04126F04127304127704EE
:10057000127B04202010B5040005D1BDE810403FD7
:10058000220FF25461C5E0C046C046DFF89C05006A
:10059000210170DFF898050672940610100A21DF19
:1005A000F890050068B0FBF1F0DFF88815086006E8
:1005B000100805016800291EBFDFF8801A200B0013
:1005C000281CBF890000F036FBDFF8744611228337
:1005D000700506926C06726806201000F026FB007B
:1005E000F0CFF9204600F02EFC2088E8B90A30034D
:1005F000BDF82088C00A12FC1432980A300371FE3C
:100600002088700A12AF0A32480A20067AFF208832
:10061000002804BFC8302300F0FBBF10BDDFF8DCAA
:10062000040078012806D1DFF8D0040178FA29BC4B
:10063000BF491C0170704710B5DFF8C01C10051AC7
:10064000D100F0EBFF04EE12AC22100991B1491E6B
:100650000170C9B2002902CA12A4221001002808A0
:10066000222010DFFA00F025F803D000F01CF8007B
:10067000F0F4FF2FE05E227C20100EB17047DFF80F
:10068000780410B5007860B900F0C54C100100F096
:10069000C730320D301204303001D8FF173010024D
:1006A0008804016880226032138014041007240833
:1006B000700C2101FB00204224011400684840080E
:1006C00074140968884270472046C81409A1BF0FF6
:1006D000F2CC4001F014B838A61606A61403384030
:1006E00040F2A5A81009E441F1E7DFF8FC532878AF
:1006F000D07810038EFADFF82C54122C548002DFCD
:10070000F830145A521C5A24181814086001202872
:100710007000F085FF43F6992001E045F68A6020DD
:100720008031BD0E1005044400F067FF21A0101FAA
:10073000216080F3108801F0EAF8F5E700B589B090
:1007400038B909B05DF804EB40F213320FF278418A
:10075000B6761016D41308900022032007900A6082
:100760000692059204920023DFF8C40304100E23BE
:1007700000680FF260410390DFF8BC0300680208D4
:1007800012B808100301903F20000C1009B00300BC
:10079000F06BFA09B000BD7076100B84630446302C
:1007A000680D4680F83420190A1004002280F835BC
:1007B0002008140AF0C5F9306855B1E5600122211E
:1007C0005010130AF8214605F10800BDE870401AE0
:1007D000E00021C187016370B812C208281C002301
:1007E000002407E04C600C600C614C610C83886055
:1007F0001C315B1C9BB29342F4D310BD7C2402419C
:10080000600181F4202E8A68038992F8372033B979
:100810000122028100224A600A60016010E05B1C34
:100820000381036805E09C6894F83740A24209D32D
:100830005B68002BF7D122100342680A6051421016
:100840000510BD1A6822B91932224B3422BD081096
:10085000015160190A302170B50446256BE68F06F8
:10086000E0E8682946083000F009F81C35761EB625
:10087000B2002EF5D10020E08720AC1024028901BF
:100880002A03D10023036043600AE04B680C68141C
:10089000B91C60036004E0002B63600CBF44601C63
:1008A00060521E983002204860085818210C4604F7
:1008B000F1340582B0A97806460698891E012903FD
:1008C000D9091F012912D973BD94F83410032902E4
:1008D0009C2C0C22F801E02A62AB840EB100F020BF
:1008E000F80A0380063BF90020A87011E02452109A
:1008F00024211E23FEFB2A10010BF80424244A00A5
:1009000020687084F8340073BD00902146304601A1
:10091000E0204696E730B50C6BC98F01E01C3449E6
:100920001E89B229B1E568A842F8D120616261232D
:100930008330BD0020714900230C2202FB001240CD
:100940001C1381136053604028F6D362170446429B
:100950001DF803200255F96B490A6C040978884296
:1009600020469403231BB808200490F83710614BED
:1009700040180A01310A8932B90023C36003619C1F
:10098000140922486007E0521C0B68C3602610025D
:10099000610B681816160ABA2132925432140101FA
:1009A000220ABE1001C2600220120632410E1C054E
:1009B0004A680261D060485E032002018901B98E55
:1009C0001408022901D013D308E00168C6200D6184
:1009D0000023CB601361D160026008E00024141092
:1009E00005CB681C61CC600A143603E21D6203204B
:1009F00001460C21B82C04394A04F10C05400328A7
:100A0000086968E26879B93AB901814841DE1C0495
:100A1000F7F80EE001892A04100481002111610217
:100A2000B6140E03895B1E0381CA60002A0CBF4105
:100A300060116158300260E06031522F184868043C
:100A4000161E863C03B7FD0546201C052C072A49C7
:100A5000884210D0016D1170041008650BD12089F7
:100A6000022808DB0C2A1E28CC041002FFF79EFF88
:100A7000281C02F006F828060416323A10159EBD0E
:100A800031BDC16C09B907490968016570470000AB
:100A90001C5600101D041220041221041007883F68
:100AA0000010FC5500107C0812780412DC0C12E0D7
:100AB0000412E40412E80412EC0412F00412F40428
:100AC000120030121F0410038C4900100C08120889
:100AD00004121E0412F81C12743C100301030010CF
:100AE0007008126C0420228854001010B582B004E3
:100AF0004641B100AB022200F07EFABDF8000008CA
:100B0000B9032000E0022084F83600B2180161FF2A
:100B100013E42DFC041001CEFA94144C0240070398
:100B2000D4C4041FF3E686032012004F53496E69B4
:100B30007400005B464154414C5D205B25730520E9
:100B40001D645D2053414645545920435249544940
:100B500043414C20455843455054494F4E0D0A00DF
:100B600038100353746172740830075F49646C6510
:100B70005461736B49200875432F4F532D494949E0
:100B800020172220181300009E2C071FBF02685355
:100B90001C036011E6054E48FE03290C18020024D0
:100BA0000D49DE140234091D08821009FAD0B0FA8A
:100BB00080F00019C0B210B61C054109064A52F86F
:100BC00021BA031C071F000124C0F11F0004C00547
:100BD0001405184313E00000C81421222002004A23
:100BE00001E00CF10128144123EA000042F8210041
:100BF00010BD2DE9F24F82B0DDF83890149D064605
:100C0000934698463DB903B0BDE8F04F4FF4847267
:100C10000FF2A021BEE00C9C3F2C06D19B488642DF
:100C200003D046F27320288053E030361001C3F819
:100C3000000C1413139DDDF834A00F9F05F0030082
:100C4000032804D11FB1B900505E101192FFADB25C
:100C50000AEB8909019500974B46524641465834A4
:100C60001C0D2BFEC6F828B0C6F82C800299316204
:100C700086BC0410133060C6F808901198F0640820
:100C8000B983480068306512987014200424A0B716
:100C900063B58768180705FE00F073FC044696CA22
:100CA0001003FFF781FF305E1C044FFE7948018876
:100CB0009A063B8078AC1C0120461CB2031010FE43
:100CC0004F00F062BC00F060FCBDE8F74FFFF78713
:100CD000BC081C0A8F2DE9F04105460F4616461C3C
:100CE0008E061C0C40F2B4420FF2082100F04EF8C0
:100CF0003AE058041F2030C607281143FC804638CC
:100D00000404D500F0D2F846F2B01006E063DA1D14
:100D100076041019CAF846F66350208024E02B466A
:100D200007220021FFF7FCFC00F0BFF8FFF758088E
:100D3000100327FC014659B6501390F8350078B1DE
:100D4000012802D0032803D008E046F2A910075E6C
:100D50001C0147F2D9BA061C0146F62BBA062F0829
:100D600046AA0617002062140E8180B53AB940F2F7
:100D70008C520FF2881100F0074E101502BDBDE82D
:100D800000501346002248E00FF2341000F072BC0D
:100D90000FF22C0810016EBC202C1651921C0E6C08
:100DA00011F5E73A4900220A803C490A6002805A5C
:100DB0000319321A81341C08C160016141618161EB
:100DC000C16112091019110162002141628162C1E1
:100DD000624165A0F85810816381874FF00041019E
:100DE00064181C05648164C1640165C4061E10BEDC
:100DF0000611041C033610402180B4041003704710
:100E000080B525D0300200F050FD0817AA002A2432
:100E100004E8FDF8E7000048140782B007460C46D6
:100E200015461E981008A9FB80460FB91A48076896
:100E3000E61F80974203200A07281AD8DFE800F04F
:100E400016160404041E97A8051C0107280D960613
:100E5000140500950023394610BA16ED361DF40529
:100E60001C0B040AD4FFF7B7FB07E000F019F85099
:100E70000617F0166824022A6030801C2FF681C401
:100E8000032D1C049E1834042DF4035E0038041254
:100E900040802F6DBB6C032D4703FC062343726516
:100EA0006174650000AC032140B00553656D506569
:100EB0006E641030016F7374107E5FC0034E3FB2DA
:100EC000032E005C0417924C181002AB002208D2CB
:100ED0002FCFFE5E0418030028F5D1208A1EF236BB
:100EE000051C02C1F8EFE7BC071C04B0040009D1DF
:100EF0000A4E031C01104075FE08176021BE3C0419
:100F00002000F088BB84E6032D08071A82662C02B5
:100F10003F2803D358031C1F208017E003210791AB
:100F200000900021069105910491089400237B49CB
:100F30007B4A09687B4803917B4A05320206180305
:100F400001910FF2508A1C0220FE0AB0AA041F2051
:100F500077DE061C0405E001EBC002DE061C0A6019
:100F60009380D38080B2734A12889050083C3770C7
:100F700047F0B5684C2568042A19D14A1B521E6EE9
:100F80004DAA4226D24164511C81646A4A416C12C6
:100F900088B1FBF2F502FB151189B2654A02EBC17B
:100FA000018A88EAB9426182E006582435E081B1BD
:100FB0004E19082A0BD1026C8A18551B6D1E8D42E2
:100FC00038BF1646466421680664711ADCE7466439
:100FD000DAE75210366147F27E2025E00D68CDB188
:100FE00000E035466E6C2768F61BAE64876CBE4227
:100FF00007D26E69002EF4D10024446185616861D6
:1010000008E0AC698461002C456107BFA86A100B39
:101010006061A861521C8A808C88CA88A2621C0305
:101020002246CA80C1940620281880F0BDC169B943
:10103000B1002282640B684269834205D113000B20
:101040006006D000229A6103E083695A6102B1937D
:10105000610022B21C07C26142648888401E881663
:101060000329AE1C1000F057FA8046284D3049285D
:10107000680988401C2860000C1C09F201FB120062
:101080002A4980B251F8FA031C0DE03E46002E3882
:10109000D006F13404A07877697A0B1DC2031C0FC7
:1010A0000DD005281BD0072822D0EFE700F04BF821
:1010B0002814092FA07078041001E7FCE61214012F
:1010C00042F81FE62339F81223DEFC1C1C01032022
:1010D000609A081A86F012D620500332F80FD10415
:1010E000321001A0FFCD12100129F8063232203251
:1010F0001C0597FF0420E5E7406A0621A22B0ABAE7
:10110000E02E04DC0619D81298041F7D0B04071D7D
:10111000000312940C2A90EC1D08032E9CE4062078
:101120000700FFFF00202062A084461C0B1DBB208F
:10113000692968411A61612968817E0B49AC78018F
:1011400069636BB0FD1F0C038DA00621474DA006FF
:101150004C0810B5491E00F10C0289B2B40A100205
:1011600040F8042B04134B20042F0C32B40A3C0823
:101170008B42F4DB046044600481580A3D960D18EC
:10118000017040A8F0100D68010EE00A4805680AD9
:10119000480688314628B41C11D8FF054805600070
:1011A000218680C180218070BD0FF2149C0810033D
:1011B00000BA0000D0E41284E4128004FD21C403CC
:1011C0004C065F4D7367506F6F6CB0072D2A051E7C
:1011D00071F80B3C034C0107E0022A053D26051778
:1011E00000146410010FF20472F322C7B964425173
:1011F0005E4D08051E0650061E15500621EE100114
:10120000F04153EE1C01D8118EC6041C0B1FF9804F
:10121000464D4830607561776006FE0B5C03FFF752
:1012200018FA4AAA061C0100F06CE4052F2080FC85
:101230000511441F4387A2081C030E9D0F46914EC3
:10124000051235B41C0347120FF2D00A067C015573
:10125000F84F98063C0DF7F88046606930B1471E9C
:10126000676100F04C72072C0438E05FEA0940AC7B
:10127000065E44AC065E33AC063E3CAC062C05284C
:10128000802FE03B4606860C1C06A8FFF7A5F90058
:10129000F030AE061201085C03D0F8014629AE0614
:1012A0002C0680B102280CD002D3B006FE0211B089
:1012B00006100145F6C24A2C0208466769B2063C90
:1012C00001384606C2067E28C2062E0726081402EA
:1012D000830FF2EC502F1FB990054FA5B8D2061618
:1012E0005E0EAC041411FFF7F1FFD2061E17D206F2
:1012F00012C02C1C0509B920B94FF457CA06940333
:10130000FC01F5E703A09C0353454D4116EC051580
:10131000242E47C6092C030F4690461D420F1FF886
:10132000815E0C2C0A0800068996B9606910F101EB
:101330000F5403122DF412C5AA1E007A0427471C6D
:10134000264624261C16461DE0B90558BF01260076
:10135000680BE0D0F804A0CDF80080002381B20D26
:101360002DFE094C02A9F95046F20C2C02F0D16472
:1013700069020D3005380458BFFFF76D3E2D080A8D
:101380001001F68748761F3AB8D0095F656D63068D
:10139000FD220C0A9D5C06BD5806110D495221FC28
:1013A000100372B6704762042002EFF310800C2520
:1013B000642F7047F2091D4C0C13FAA0061F30BFB2
:1013C000620F11041C0300001948FFE41010110003
:1013D0002080F3098817481849016062B6FEE715B6
:1013E00048150A30037047134813081C0D72B6EFF6
:1013F000F3098028B1203880E8F00F0F36062C065C
:10140000086000B50E4880471A0F10110D480E49AC
:101410000A78027009480D490A680260106890262F
:101420001DC707115420024EF0040E8C100322ED4C
:1014300000E00404470000904F8F15740B2D880BBB
:101440002D840B1F1CB55C0B1F2100D2063003D06E
:10145000FA0222010A1005CBFA00221146050A728F
:10146000C60A1C02E9FA00A8E0081C03FC4FF4E1DC
:1014700030DC062C01A9514CD40D20028AFB01213D
:1014800008200C37FC13BD0EB400B5A0B0014621F6
:10149000AA2A2343FC061C0856FC0246012300A985
:1014A0004648BE101FFB20D00F4F10FBAE0B3C0177
:1014B00049FC21A60B2120123E1E2002E5BB80B56F
:1014C000682DF2101001010080041E02C60C1402E7
:1014D000EFF30884021A858C180610FFF7CEFF047C
:1014E000F1247E10036BF80FF20C101001C6FF05FB
:1014F000102DAA0C100561E080B500AB01CA1C05D7
:101500002C48FFF711FE01140B1C05F0430646831F
:10151000B089E2033298C21C03B2FAC00742B00895
:10152000140130FF2448240291F83770A0200420D1
:101530004C0FF2C801C42C11F4FC1BA2012E08D0E0
:101540000FD3032E0BD007D3042E0804111B020760
:10155000F41001AC0204064001B0020106100A9723
:1015600000954B460FF2B80104F118904369FE084C
:101570001C07DFFB00190AAA414618AA0B43C3FB4C
:101580001423D5FBE2110C130105E62372FB6A1F3D
:1015900017FDD20A438300014403C0094020539C35
:1015A0001C0DF8B5046945698669C769C168009171
:1015B000832A0E1E01D4101E648004180B51FF0FE5
:1015C000F28C00009733462A4621F81C0149FFF1AE
:1015D000DC0C50074D5350203D20000050082C03D8
:1015E000646562756740091003494E464F5D0820E7
:1015F000025741524E0868044552524F525DF82836
:1016000001002573FB2A3AF939FE21871372304312
:101610008006253038582C2072310B82320B523321
:101620000B3D130380010072311B736C720B8370CE
:10163000630B9373723215E4140868010018BF003D
:101640004770473C80120A0C12080C923A0C291A77
:101650001C08029802EB80004FF08072A206122D47
:101660000420014D334A0A40024FF012320852035F
:101670000853023222123D0440031D4FF01131087D
:101680005210085209085208085207085206085218
:1016900005083204081D681191A292180C1C0580DF
:1016A000B5FFF716FE146A031DF20F39341C18003B
:1016B000F0EDF8BDE80140FEF717BE0F49401E48A7
:1016C000600F48026842F07F42E40F30046840F047
:1016D000050008081202082DEC032D080F5EDC142B
:1016E0000F8F5B0A100F2D4C0F2C0310E000E02031
:1016F000A003101BB500BF1300964694461039286E
:10170000BFA0E80C50FAD85FEA417C28BF0CC04863
:10171000BFA24C0F2BC90728BF20F8022B48BF00DF
:10172000F8012B00BDC4065C0305460E4614C20634
:101730001E59B4051C0380119AE0584A062F10B1B7
:101740004606100129E030C61802022E03D0CE2C26
:1017500005D0082E03D12DB9E0091E1D1A061C0262
:1017600025601AE042051C01FD4E4F360D1F680131
:101770003A0C10013610230A1801324629623C0F38
:10178000C7FA208808B140466FE03868FEF7AEFF20
:101790004032069C02FEF7C0FDFE06200D41069C6D
:1017A000079D45B90FF244110FF21010843009DB88
:1017B00022FFF7FABD384E3678168210044AE0143C
:1017C000F00E0474122688122C8830102C0AD008CF
:1017D0002C05D13BB941EA0207074303D13B8C1CDE
:1017E0002636E02D4F3F684FF03C0E4FF4616C0EF3
:1017F000FB01F10CFB00104FF4FA71B1FBF7F11093
:1018000018C91879434FF47A72E80A1C09F107FBEA
:10181000001707B3FFF74BFD0C151C02800646D8D6
:10182000BA0B41C0322B0C1001224639C21001669E
:10183000FA28C2200230460EE0145003FEF74CFF97
:1018400030C4125EC41D6C0633E02EC821B61C01E4
:10185000FFF729C8081E506A03279CBDF02FFFFE22
:10186000340D1E094C044C060FF90948094A00784A
:10187000D6141403FEF752FF017A6F0000E0062D24
:10188000C80C2DE8092D54052DD8101D7C0CFC0525
:1018900024696D65446C7900C80C413C1002484DC8
:1018A000534D102C1001EB4010800000F1804000DF
:1018B000F5303070471CB59C111C0D0168C90844F7
:1018C000EAC101016013BD1446ECD40D3C070021B0
:1018D000204A204B052813B80D100D0305080B0EE8
:1018E0001011460CE002F12001090610014001062A
:1018F000061C03600103E0196A131203162B084645
:10190000981E38EA1316152A1C02DFFF28B1461765
:101910001C062D14BF2143A14301401212101A507E
:1019200007FFF7D3FF00B18461100E12CC0E12C472
:101930000E1C01002A0862072402F5BFECE72A12F8
:10194000C1161007406902BD0080092080043EF4E2
:10195000640E1C01F24F84640E1C0500208DF808F3
:1019600000017C051FF2FBB60E1C2509C846CDE917
:10197000008805464FF0FF360124C246D3462A07A9
:101980002B09A4FB020104FB0311049A0BEB0403D3
:101990005A43A40A1019F002FC0A46B0F1004F8421
:1019A000BF4042521C52B1B2F1011F38BFB04205D4
:1019B000D24210252A0600D946A04607D00BF101D5
:1019C0000BA345DCD316B1641C102CD7D3DDE90082
:1019D00001002908BF00283AD028090E2C1145081B
:1019E000FB00F609EB0800A0FB042300FB05330015
:1019F000218C102C0ED3FB0499884234BF0E1A465A
:101A00001A642070435018300203281ED2401C0173
:101A100004000E3A16200B118F42397B41F08001F1
:101A2000397338711810193870387B00F07F00381E
:101A30007309F00F0040EA081006BFC0B2B8628711
:101A4000F828E221E8129D042E0550092E8F9A15E0
:101A50001D5A171408010D46844203D101210802C2
:101A60001E82921830016461B410121010127A10A4
:101A7000435C01201DEE0410047006E0DFF85010F6
:101A80003204101E002E17200569FB07202072006B
:101A9000041C08E02078207DC007FBD480F81230B9
:101AA000073000207D8006FCD5000C100B60602004
:101AB00073206284F84C0084F854041C045000B471
:101AC00042207DF0152005202074207E02E0261E95
:101AD000242A131C152968FFF733FF207B6979003E
:101AE000F0C00049B1022905D034BF4068071E404C
:101AF000F4112F01E0AE04100D297979B140F008FE
:101B000000022906D00AD304061238221001200050
:101B1000041E32102414033000A97901621C104005
:101B2000F00400207370BD4FF41651016003214191
:101B3000710C0F1C0171817104154E70B60D140CDF
:101B4000044688461746012B14D1002507B3F21C22
:101B50000F3001E0E0B1401E217D8906FAD5B8B111
:101B60001026EA122011F87F1E6D1C761EEED000A2
:101B70002FF7D10DE000255FB1DC2308D51E5209F7
:101B80001E32F41E2D92142410F08118F8011B202F
:101B900046CCE7012904D190F83010A22302E00AD4
:101BA0001E0000042B3010D61804014000C0004075
:101BB00090110814010940168C1C0B0A4600940170
:101BC000AB00A906487844169C071C024BFB009901
:101BD000B20A1C0D7000285CBF0098001B16BD00E7
:101BE000BF43EC980D1C05F10103810704D0B61624
:101BF00018071B89B18107FAD102687A200D31914B
:101C00004311F0803F04BF50F8042FF6E71E231164
:101C1000B1062002FBE7C01A721EDF6C192C08D92E
:101C2000010700D0F800D0406834063C025C485CF4
:101C300049A81A3001F35B480843F25A082C07F10F
:101C40000FF2C420FFF769BB5A101DBE121C02FD23
:101C5000FFF73E7C1A12D2081C03DCFF002215801D
:101C6000092002FFF70BFE0A2D68111C012EFE4D04
:101C7000A0081C01D02107EE0A400A00F0DBFD0895
:101C8000B9207AB8B9217A462346FB2E100746FEC2
:101C900080020DD54FF480DA1C0174FE0420081D6B
:101CA000A40B11181C0137FB144E0C1C0837F83319
:101CB000E03D483E49091A08161C02FE01F04A465A
:101CC0000C3C0AB0FF09A8FEF740FA09A90891AC3C
:101CD000105DAA1010017821030C1C110291002341
:101CE00033480FF2850200F15C010191312100AA15
:101CF000101003A421FEF7CBA61C014BFB01C20C64
:101D00001227CE1D8E052E713A032002FFF77DFCAF
:101D1000502FEBFAC8101380B58A1E31BC12118205
:101D20001EF6CC091EDD2A122316F89E1C03FFF7AF
:101D30006FFFFE34041D800311141C0F0CF8BFF359
:101D40004F8F1A481A4A016801F4E06111780421A2
:101D5000121C03FEE717480458111C0309A0FFF7E3
:101D6000D6540E1F10B54A041C03A402A8019018F3
:101D7000041DCA191401012201182FC1FCFE0B2CED
:101D800002C6FAF2E73805122E042EAC640F1002D8
:101D9000420F00A40812A0044310FF04121C041FE9
:101DA000E44EEC0A2D080B2C0100FA0570071E1CEE
:101DB000D004100101A900E81F002262061C056181
:101DC000FFF71AF9BDF8540E20072848D0FFF7BBDB
:101DD000FA10B15E43ABFA141F3ED0460D10065107
:101DE000401A18D0401E19041C041AD061381BD0A8
:101DF000A606101571401A1AD0401F1BD0801E1C59
:101E0000D040F6B331401A1BD0C8380C2001F2AED6
:101E1000410C1E1D2E0A100178101C0610018410A2
:101E200019061001981016061001A41013061EB80A
:101E3000FA071D7A0A13100D061001D8100A061EA3
:101E4000ECBC0D2C020FF200206A0A1E14BC0D140B
:101E5000010FF22444140168FA13542D8E06100168
:101E6000FFF732A610050000B8B145F6C390120680
:101E70008C200407D041F201010C120830322042BC
:101E80002330104223F810421EE0260B700147FA5F
:101E9000014223E6FB4212F04210032561401A0A78
:101EA000B6123EC61209B2121252200508D00938E5
:101EB00009D00B863192325C5032C05032D450126D
:101EC0009050121F50602000004C5043313738387A
:101ED0002044465520424F4F542040202575204D28
:101EE000487A2050434C4B203D0EA00155534210E0
:101EF0003DE8063005626F6F7430303108200B5FAB
:101F00006D6F64655F72657175657374274E64608B
:101F10000AB00561707020657869143D9217200D34
:101F2000696E67204170706C69636174696F6E7867
:101F30006D950A31205D93171F0D0A9E0D1DF80A3D
:101F4000D0085F4F424A5F44454C0D0A14200550AB
:101F500054525F4E554C19B118B0025459504514A3
:101F6000B00850545F494E56414C494444300850E3
:101F7000454E445F41424F52547CC118D0034953EF
:101F8000520D0A14A009574F554C445F424C4F4321
:101F90004B1C200453434845445F16B3454418A0E6
:101FA0000354415455537B811C300454494D454FD3
:101FB0005579C0090D0A756E646566696E6564249D
:101FC0001D890FB0025F4F5646B42138E0025F44CE
:101FD0004C59A0311820025A45524F1D456C1C0126
:101FE0000CB41C3A051E0478036D3E051E073E0521
:101FF0002DDA0CDFACF83E051C06BC5DF80CFB03CB
:10200000E7FF46081D4E1A1FD0058E101A07901EB6
:102010000B2404100770470A48FBE70A48F9041C20
:1020200005F7E7FEE70A4A01181C1C02116808437D
:102030008C081C02B9116821C4183E10240B2DB461
:10204000032DBC0312A8042DCC031016C4C00F40EE
:102050001B4213D1094236D12AB18446B0FBF2F0BB
:1020600002FB10C22C1C03F0C3BEFCD38E161C0452
:102070002370470B0002FE081F0020600F1C034264
:1020800071EB030C0E1C1027B5B1FA81F4B3FA837F
:10209000F52C1BA340C4F1200532FA05F63343A208
:1020A000405FF00046E64002E05B085FEA320284EF
:1020B0001A301C010524BF1A071008467641F4D3D4
:1020C00002000B00304C200A70BD012ACFD970B538
:1020D000140C20D04A1002B2FA82F546200804649B
:1020E00019B4F12006D6D3B248100644F4400025B6
:1020F00002E0524A10013303C64A300B020E24BFDD
:102100003046714664416D41F34C2C062000290095
:1021100070BD0C46B00A201502FB11452D0445EA9E
:102120001045B5FBF2F402FB145580B240EA050EEF
:1021300021D44C045240EA044070D00B1C084F9349
:10214000B0804602AE0020142E111C070291B0612F
:102150000CAF0AE0146C0614060298C04702900007
:1021600028801C1081B069401CB061207808B9B08B
:1021700069A6E12528EEEE072C04F060306170615D
:10218000A407130100301C0C1F2029F9D023290DAE
:10219000D02B2904D02DCA073C0330290AD00CE6E5
:1021A000072C0280B2EEE7C00712FA061001080001
:1021B000F70620161000F4E72A290DD129680A1D18
:1021C0002A6009683162002904D54942261C04317D
:1021D0006280B2641C921A1C2B2131620BE0316ABE
:1021E0006FF00043994205D001EB810302EB4301FC
:1021F00030393162641C2278A2F130010A29EED311
:1022000021782E2903D0F007200231F1611EBA5047
:10221000021F2A29065A2004641C0968F1614CF047
:102220000401F1610BE0F1694CA3F1614C100CB0B9
:10223000840FF27430217800F0CCFD08B14C1C0200
:102240000B8DF82E68091C012E00687021200620D5
:1022500078682803D16220141029641C0CA8B0608F
:102260002278252A13D0582A34D0632A00F0A2807D
:10227000642A18BF692A66D06F2A2BD0702A20D012
:10228000732A09D075141C19782A23D09BE0F068B2
:10229000411CF160252194E02868011D2960006837
:1022A000F269704A1D1F02D5C20C2DD4181D3419B5
:1022B000500D9CFD00281ABF7168401AF06930610A
:1022C0008B2A2F7821582010040CA870606BE08EA8
:1022D0003008306C2B08BF286811D071081C11021F
:1022E000D028686A2B0AD1C01D20F00700286001A1
:1022F0004601F0121C012860D1460A4302E06A4000
:102300000B0190682B02D101A8008803E0620A1C2F
:102310000278019096AA091C0900073CD501980093
:102320002839D0427A09200A782835D1F06830213E
:10233000C155401CAE2001C2552D721F0062A41A67
:102340001E68E616520B92500390F90000090C1219
:10235000B00C7203D41D380740012804D5EC600688
:102360002D210DE0B08C81071070032B2105E0C0FA
:102370000E1220661008F0680CA940187060114613
:10238000925402F07CF81226691A7401C15509387A
:102390004002C1551AB10C1403C255306AF1242011
:1023A000087169401A3169A0EB0109CA1405641C5F
:1023B000400711D420A01DDA0C1C03F0000A09E02C
:1023C0000A122C01AA01A96614500FB6F80028477A
:1023D000D10AF1010ACA45F3DBF3680C1812AA18F6
:1023E00050063BD13020D6F814A038930B08382C77
:1023F000029AF860BBF60B7C0DD345F4DBD6F810DF
:10240000A0D6F804B00AE01B20034FE8B11C031269
:10241000AA5A2004BAF1000FF1D18A400440077F84
:10242000F568AE8A4301E0768002BFF65FAE5812CF
:102430006E782AF2B63F3013C20B1C03F0B4C268A8
:102440006FE80A1816082405D041F02003782B14F1
:10245000BF0A2410240668182337466429582DE043
:10246000201C0C2E48BF7F425FB9056A4DB9082C6D
:1024700027920A50372810090723D530211723D176
:10248000751FE0B7FBF4F604FB167730375D1EFFCF
:10249000B22B463A2FA4BFA1F1510C6744AF543779
:1024A0000003D085689E18B542EBD3082C093C1C6C
:1024B0000D05D5995C302902D05B1E30219954C39B
:1024C00036121C1A41619A188260026A914208DA37
:1024D000511A81614FF6EF72018D11400185F0BCF8
:1024E0000C0510012A0ED53A100E2002F01402102D
:1024F0002A08D1426A0369D21A83042006531A01BA
:102500002BA8BF8361261D58121F460D3A1D1E1FA2
:10251000920D140104E0E8221407E8617F1E0020F8
:1025200047B1163A14046868A04768600026D100D5
:102530001EF288041C03686C747A4C04063C01FE8D
:10254000F7964A202C0E0D46272C08D2FEF793FD55
:102550003D4941F8245072131C01FEF7901C201EC7
:1025600038E01E2C040FF2E505294632091C07E964
:10257000FF641C272CF8D331CE1A1C034EE0012037
:102580004CA81F1C2B4AE0032048E0042046E0052D
:102590002044E0062042E0072040E008203EE00919
:1025A000203CE00A203AE00B2038E00C2036E00D19
:1025B00020349C09303300BF0E2030E010202EE084
:1025C00011202CE012202AE0132028E0142026E01D
:1025D000152024E0162022E0172020E018201EE01D
:1025E00019201CE01A201AE01B201838101F1C208C
:1025F00014E01D2012E01E2010E01F200EE020201D
:102600000CE021200AE0222008E0232006E024FC40
:102610001C03252002E0264020232720D81C01FE91
:10262000F72A1A213C03FDF727FD281A1018052761
:102630002C05D2044850322DFC111C098047BDE8FE
:102640003140FDF725BDECA0132DA4062F80B5A0C9
:10265000261C01FFF7841417200200F0BAFB061EA7
:10266000C2BE0B2ECDC20B2C0BFB044801684FF6EB
:10267000FF021140024ACE0A2F01BD740A1E0074E7
:102680000A241201E0491C521E72B10B7890F80026
:10269000C09C4505D002D26C1D2E0D1DBA061D4AE8
:1026A0000C1C023B002BEDC40521644D3C0D120DAA
:1026B0009C1FDCFCA0181004F23C1802E0400E271E
:1026C00050FD644C08404A90472F680B2FF5D0CC42
:1026D000103E38160D1006B0F5803F01D2000B40B9
:1026E0001FF17F2C104C047F00C00B1030880D1C94
:1026F000018AB006EC1D1217B61C09ECFF3221014D
:10270000AD01916860A894181E2344151C05F808B3
:1027100020B100908E36122C10F80310E033200107
:10272000906E60AF60049400F046F8DA0B10050577
:102730009000F00FF84824129D242C03F00341462A
:102740000402111D3E111600DE2D141D1C0AF0811D
:1027500006A901A8A4E770B588B03A0B1002FF05DE
:102760004632462C0601AE05A97560B5603E181DBF
:102770003A0A22046612B742129466100175603458
:10278000222C0300F015F8B5C81B2007F0049005B3
:10279000A9FFF7DDFF6612C6243001B4032166529B
:1027A0001F662F08B0660E3C017A71024E081D0D9F
:1027B000112C011FFF1F2C08100100B587721C018E
:1027C00082FF359E0C2C040190029004A928191C4C
:1027D0000460FF08280CBF72101DDA182C1400BD0D
:1027E00045786563757465436F6D6D616E643A20FD
:1027F00062757379DE083C056961705F7772696D97
:102800001E1C09434D445F50524550415245330907
:102810006C0443544F52533A710A211C500F434FDA
:1028200050595F52414D5F544F5F464C4153481ED3
:10283000214460026572617344F0020045524153C5
:10284000421D18221ED1C40C1E3872261008F8032F
:10285000007868B9DFF8F443041F03219C1F1AEBCA
:10286000401E20481B2C02DFF8E80374111002DF21
:10287000F8E41304180553445C2A68DFF8F71D9840
:10288000041C0150FC014A271C02D813A040F81771
:102890001320282612804C4FB003DA2812A4541EAD
:1028A00060881916A0D01ECD88271EB4E42653C90F
:1028B000FA201E70A60B200422DFF8A8130A2A3182
:1028C000061284603C03A023405C14CC1210094E15
:1028D000F2FF12B0F80B101140A0061D26282805A3
:1028E00003016841F00201BA1C12D249097811B9FA
:1028F000D149D24B01E0D449D44B0A68D054D21408
:102900004E1CD0142C02D8480178EA242DDC192062
:1029100010D64F397801F07F01212940F018817CD1
:1029200088FD887C1003C3480160C404419C1C01DD
:102930007FFAC6FC161C0F7CFACC4E787896F8000D
:10294000900FF248380628E6AE121C0310F0F10092
:10295000074F0A1C08CD00E500E800EE00C54FF265
:102960001B2C023A002C3F141A1808FD30B15346B4
:10297000662241460310140717FC7CE0002229461A
:1029800038161EDF880E1C0B7BFF3978022D04DB06
:1029900019B90420304819200970707878BA780085
:1029A000EB0220FA061001403A79061F6021281038
:1029B000700B04213170002171705BE041295A0EC7
:1029C0001D541B1804FE002852D19C744BF423DACA
:1029D0001001E5FB0A4C12044C1C0846E0022C4492
:1029E000DBB9F1050F4E1210022D02D102181C05A1
:1029F0003CE04FF40071383004100D07FE0024DD78
:102A0000B14FF04009402DD8BFA99223D7FCAC525A
:102A1000C1AC1001C1FB26AC1C041FFA89F1E019FE
:102A20002A2011AE200A24FFA5EB09054C44012DF4
:102A3000E2DAB0233A46B221501E7098111C012BE5
:102A4000FE50441540028023DC228832A188120304
:102A5000221C05706800F50070704A031C0103FF1A
:102A60006442052DAA0E1C056B4C207810B97BE43E
:102A70001534061AE06C4F734AC05DD01721B1C6F9
:102A80003407C1F3002181B1000440782004C3F968
:102A90002078C05D0E2D50126FD3F95A1910012005
:102AA000B96D3E10040028D6D13EE06215561D04D3
:102AB000231C02FD706828FA07654E1C051DE07096
:102AC00078FFF7FBB6231E2FDE10122D041C012BFE
:102AD000F848460412F2121E2644101295081007F8
:102AE0001FFC307804281CD105342319E036230557
:102AF000E0241C04E0FEFFF785FE801411181C037F
:102B000009E040F22F141D1003B813414601DC1CEC
:102B10000233FB0120D3031FE8F0C80B13FFBB08EF
:102B20001C08870020C7E680B501221DC80B3005B0
:102B3000FEF78DFD01221E0A300388FD00220E0AD9
:102B40001283141D421022410C92A50C2C01BAFDD7
:102B50003C84211E7040131B713A6E19F2EC01B5D2
:102B60008BB0D6101DA4126E71D8101E32D8105E14
:102B700019D8101E043A041C0517A1FDF760FD0BBF
:102B80002C042DF40C140310B52B4918641405857E
:102B9000FC224C022020081D10201002F00EFD64C3
:102BA00014165E0210013CFD010A140159F8A03C04
:102BB0001C01F7D0011C201D3E10194A1E506E1C2E
:102BC00019E042FD0E1C0549F8FEF78CFFE70815D9
:102BD0001DFC0E1F0098E8172EA8FC261D33162E8C
:102BE000A40420110422B4101D41131F58C21A144A
:102BF000100205F200B91012B00422AC181002083D
:102C00000020941812B80C2C0388090020C4EC048E
:102C10001002060020BA101E1B6416100718E400EC
:102C2000E080E200E0D0181008CD3800104556458D
:102C30004E545F6A4C0E5F4465766963655F436F0F
:102C40006E74726F6C52520F1C0C00456E64706F84
:102C5000696E74206E6F7420FF1C3E6402058E0046
:102C6000C0043004206572726F72157D18059114CE
:102C70001DE00F2C0153453AE70F1C025F524551EE
:102C80004A0F1D970E434348442D0C041C0802783C
:102C9000C9B28A421AB11CBFC8064C032FF9E71803
:102CA000BFC8062C08C9B2830706D0521E22D3E043
:102CB0000610109942F7D11FE0083A13D302F1042D
:102CC0000241EA0121041E4150131C0E3B121F2138
:102CD000BF4B40A3F1013C2CEA030C1C68131FF30B
:102CE000D0082D20011F0832381C09521E28BF9120
:102CF000EA030FF8D818D6051402401E7047EC3CC2
:102D00000441012808780CBC141D562A80010008D3
:102D100070162303D116900208700AE01A1E40AE06
:102D2000042C01F0FB019A14180372B60348AA326E
:102D30001255042D1E1D1D50283C0F000040401848
:102D400010F0030308D0C91A1FD3DB0760193E2D0A
:102D50006C191C042D130030B41424172D94192C55
:102D60000520E93C00FAD84986193C01E90C009499
:102D70001940012D89002841341E306C0917C918EB
:102D800002110C12CB2821084D20141C096C1410C0
:102D9000228A6008610868C0BA152D882D30075C4A
:102DA00024102393601061101250019360110A21C6
:102DB0001C50014014302E2DE815134869441DF6AF
:102DC000051F2804DC031C01644021F42561081C54
:102DD0000168C90508162C01214163C8122C0203A1
:102DE000714160780D1D24261C01600264A22D1C17
:102DF0000E23D160416551621163D1630720506198
:102E0000306A061C05EC031060FDF7A72E041D6A4E
:102E100006100303C17041704C22700E1EDC840644
:102E20001D6A06910672D4061E009C061ED0642DF3
:102E30001C09D0230078DFF8CC33002807A62E1019
:102E400001C813180E2414C813C05C42EA00409550
:102E5000E72DE9F84606468A4699461000AE1D70F1
:102E6000061C0B7300EB4604F87848B9022C07D314
:102E7000D82F2C02130120F8D82F1C0303FFF77E54
:102E8000FFA6071C01FA04F5F616600D03416C2934
:102E900043416484644FEA8951890DD81DE60310CB
:102EA0000571816036B9416B1E1C05630020B86056
:102EB000F860520E11581C075C1300FB0417142114
:102EC000386C041C014DFCBA44204DF4072FB9881E
:102ED0001E0B1C02114041EA34031D2C2928064018
:102EE000EA4910B880B889141C01B881CAB6221EFC
:102EF000200C051F80001E052E6560162DB0271CB6
:102F00000706B90024BE48345401B22623F2867461
:102F10001C0128462FF8251FBF49EE2B1002618A9D
:102F200068138A1D692E1E0D1A2C1401E00C68F41A
:102F30001C104B5B1CD41CB3EB940FF7D300200880
:102F40006122B1A70E071B09B9D23C0270A5480245
:102F5000CE2B1C06A24A002393704029441E1C114C
:102F6000BF01231371D46840234039403404E00B7F
:102F7000460125580E1C0D2495709160D4600222E4
:102F8000A749CA608B60D22E1EE00C0350064B0C82
:102F900060521CDC1CB25C1C01C860A0801A2C02B0
:102FA000E1FEA048700B2FDCE62E3125582DD00510
:102FB000100180719B1C2C02DCFE621E441F6C02FF
:102FC0009241D20F14051C0430BB082295498C2D68
:102FD0003EBB3C251C1124934DDFF848827E4F7A7E
:102FE0004E306BE040C00721D5B804380440B063D0
:102FF00064B9305E10037069400743563C01387075
:1030000040DE231C0182FF1076092C08B870F86896
:10301000B968401911B1EA241C0B07E0397929B1CC
:1030200000213971FFF790FC0A1EF8CA0F2C02022A
:103030002CD6D3000A1C0630B503461424724DC2A8
:10304000191C0354A160A188820614081101B9E279
:1030500080A1894FF6FE8C3003A1814FF601081C38
:10306000030021E1815B400C1C0323400121011A74
:103070001614456649086030BDF0B56C485A4BC11E
:1030800068584C022221FA02F5ED0716D5D507142F
:10309000D414255D4E05FB02652668EF89BE19260E
:1030A000601E682768AD88F61906EB5515B5F50062
:1030B0007F03D9056825F0020505341C050C2AE1BB
:1030C000D30161F0F41F1FF84F66191005A1594F85
:1030D000DAF800B00A128104101A91434C414D02F3
:1030E000262BFA06F0C00726D51420474900FB0618
:1030F00010F2078088C0AC1C1F0CD4B1B94209285B
:103100006810B92060494613E0206829684018001B
:10311000EB09010DE079B141467090052EC0561CB7
:103120002C062038600AB101460206082C037239C9
:1031300068F0B2C62A1C05761C0C2ED1D3CA860EA6
:103140001415BDE8F18F38B521484168026801EADD
:103150000204846020071AD532A6100100FE38064A
:103160001C0314FEC006125A103C031AFE36480215
:10317000FA211C0100904080162DCE164362FE0EEF
:1031800032800E10055BFEA00506D52D3423E3FD2D
:10319000061C07F7FD009014F0060F18761B1C04A0
:1031A00015FF294C60683E0A1C02EA0105E8AA04E2
:1031B0003003FFF75FFFA8081C0881FF680744BFC2
:1031C000A06AE0627E0D1D40062E805C061D400652
:1031D0002D48065EA484065EAC68062D80062D98F8
:1031E000062C020005400090061E00D7241F000197
:1031F0004E052F05D811051320883C1218043E1CDB
:10320000A006211812FA041EFE531911A84E00A0A0
:103210000612AC0412901022D8401202182C01029F
:10322000FE00A0061C010005FB15061001FB009026
:1032300020100138B557C01C0180FD562C221EFFFE
:103240003E0E3E05260E1C028FFD45EAF8221FB2F7
:10325000326A263C13514D514A28781278514C411C
:103260001912061ED500222A6150D20A1003FFF758
:1032700064FD4C3E1C0461FD00214B48BC054C071D
:10328000BDAA616A610879494ABE0A2C0A4FF6E173
:1032900072818911408181E06BD6121EE0EC301002
:1032A0000338B929694234163E502C0A2861E86077
:1032B00070BD0E79EA693F496A271FABFE78081E88
:1032C00040700B2C0220E861701E221C024764240F
:1032D000FFD81E18038146384E33361C02E0802E7C
:1032E0004D9E111D42031C0D69FC29784819007977
:1032F000C20703D531B99834102C0C12E0B1B9389B
:103300007880B121E01421294A6C091C038989C9FC
:103310000708BC251E5644046F59F8580910078841
:10332000B9307888B902202F28221F28132081283D
:103330002C0CF4D58089C0F34300022818BF032861
:10334000E80D1C071FE0052808BF03201BA8331049
:10335000035FF92878406E2DE0251C0300F033F858
:10336000828C091C0546F95FEA8A704896032D6035
:103370002B14055CFF4845B2D0813C1C05441EC09F
:10338000B20028AC96283D3809159416F56C3EF528
:103390006408CF8809500825C825AC2D68082598F1
:1033A0002D40084D180A1DB22B52BC743D1A0A1D3F
:1033B00048192EBCEC0F1C01EDBB40160A1C044042
:1033C000B94049404A7A061C015C0A68F020900620
:1033D000603E4907E03E493F121E3D6C241C0152ED
:1033E0001E0A0A0C3E34260C1C01344934260CBC3F
:1033F00001384939260C2D041D1C090D46002603F1
:10340000E0305DFFF7EA2A031C03B6B2AE42F8D8FB
:1034100004357E2C0B41254F2B4E044638788846C8
:1034200020B9A42C1D240E1C01250EE082331F2878
:10343000FA500A16118A2002FFF7B5FF101EF99400
:10344000191C0BB2FF28556D1CADB2454503D2388F
:103450007E091FF2D1681E3D802D1C0938B51D4A1A
:10346000D288914228BF11A0261003FFF7C3FF0F97
:10347000C61C0550B90E4C0F48215C0B4F38FD6639
:103480000D1E0C200A2C040DE011490E4D600D2B71
:103490000E498A1EA1D0096F0E495C0D1C01002047
:1034A00032060AEDB0095AB0E08FAC55B809969CC7
:1034B000703C0180B511840A1DD61D19A63C01007F
:1034C000F04D1A221EFFE81A320D181340237A62BB
:1034D00070042DE80312027A1E69021B12532A2F70
:1034E00002401E1F14035FB8000013A44F1A56E4D5
:1034F000091210041212041211042F0A49C60810EE
:103500000110B509D62C0468B107480478F41B10E3
:1035100001F4FF06101E08E01B4FC3F8EE30200236
:10352000EAE710BDBC21402DF4031C024109144AF6
:10353000E0121D06071E036C052D28302D98302D36
:10354000E20D1D3E2E1402601E210E10140941686A
:1035500001F01E011E29FAD10CD4400692089200F7
:103560000A601221181001120112182C04FFF7C270
:10357000BB0648600B2D8E262C0280E100E09817D8
:103580001804F4CF082010C16C111020061820C9AF
:10359000E7FFF7B1BC96167F401C0362B38B0708A8
:1035A000F8092E11D61021041C07F024808B07F691
:1035B000D183074A1E100E8000BF103A07D330B4E3
:1035C000B1E83810103AA006100BF9D230BC5307FE
:1035D00024BFB1E80810A0041C0144BF51160A1D05
:1035E0006807133BD2161E31F0222DF42214034437
:1035F000BF0B78030812083E212A23083A2211043F
:103600001C04CBF7D25307E46C0B340180B5B770C0
:1036100012B6D85EB67A0E2402FFF742FB641EB3E0
:10362000140438033DBB38B5B21A3801AE4CB11A98
:103630004B2BFC1A12AB2E380331BDAD49AE1A3AF2
:10364000AD1A1E94780F7AAC1A340131BDA4863AB3
:10365000A2F018019E49A1F0B801A249A3F02D7C67
:10366000063EA0E8043C053FFCFFF76EF893620DB0
:103670001D182F1C0481657820789662041002685A
:1036800082924E0612A2042C05B24FF01409092DA5
:10369000B021140515F00A003B0009291C0109019D
:1036A0007505241C050901EC00F900802C041E821C
:1036B000DE161C0B0025802819D0822840F0F580EA
:1036C0002024041E0FA2222C05B9FFFFF744FF306F
:1036D000DA0D1FF01CD40D10011FF904761C022C0A
:1036E000FF600888042605881C04A8FF08E09BF8F2
:1036F000B8051C03B101259BF886241FB1452A0794
:103700001D16292EFFE2071E9CC2071001B6E0001D
:10371000621803022874D11022100D24D002286FE1
:10372000D16088C0B238BB207910661E6874031C53
:103730000185FF03FA0E1D742A2C15FB1CE030785E
:10374000411EC05D894100EBD174FFF705FF2406DF
:10375000200A4A092D30094D54041F96FAE6031C2D
:1037600002FE07E0A03E2F2C0249D1032D080C12C7
:103770008B7C21901260B210012FFF80741F3CD10E
:103780003C0D1006F07F04FDF76DFB058C12241A2A
:103790004FFCFC7E135E5580051C01A9F930DA1838
:1037A0006C08287810E0C05D09FB0081D80E1C0170
:1037B0000029EF30051EA326057EA672052C020007
:1037C00028E5D0D4091C07000545F48075454E292D
:1037D0004C361D900D42FA081C034CFA002C14685C
:1037E000051C0102208AC6052753E0561C088128C3
:1037F0004FD1A188608800AA660C1FF088E21D12D4
:1038000047EC2C02E0FE009858273C01D8FD26D654
:103810002F6F30788606180121FA243E38011EFAEF
:103820002F5E1E31D80F1E2EB23121042D401131D2
:10383000A28E8046116F29484411121C6E161A3E42
:103840001001B3FE9B7C2DC8092C01FFF7BE180F99
:103850003010FC0FE070B9A07802280BDAFFF7A453
:10386000FE60888B20300179FC04A62D62141A04B6
:103870003C1E187A091295302F42FA5A081DF61D7F
:103880005D98042D94042DE4055E98A404ED500E7B
:103890002D98042DFC056D48043DF805BF05D06446
:1038A0000E2DC0076D0C063BB1B94A5D0A06140621
:1038B000C1B930B5C3B200246E1F0A01C61B1E2950
:1038C000CC1B1C0108D03C08291C036C041B2122C2
:1038D000021E1C05500412211EE01BB0101C0874AF
:1038E00004042119E0012B03D1BC1E3004040C2177
:1038F00013E0020C1C0164141A68181C01032B0B42
:10390000EA061E07BE201C02D811455CC6391C06FB
:1039100003401C5D802528F8221A1C02146008460A
:10392000D0371C0100E83EE8041DE92911C81C033A
:1039300040830411DF85081E027B152C020009025A
:103940001B8F081C01C03209801F1C0600FE0102EB
:103950000309210F9F211F021A9F23320315F16CC7
:1039600003F009680C03500052004F0046004984E0
:1039700014091A03520045004400550054F1124442
:103980000C124C0AF0015A41003184500940466C37
:10399000617368202F307830012C0F2F31362A3098
:1039A00030344B672C31342A3033324B8F2AF401B8
:1039B0006F004C03B21D29033E51300393004014A5
:1039C0001232041F8C4CA83811A029858320522460
:1039D000220B092C0D0E270780C3C9010087930312
:1039E000006CDC02E8231ECDE8231E078614400489
:1039F000FFF7F8FFFBE73821031D940702BF000023
:0400000500070425C7
:00000001FF
